:020000041000EA
:1000000000B5324B212058609868022188439860DF
:10001000D860186158612E4B002199600221596106
:100020000121F02299502B49196001219960352056
:1000300000F044F80222904214D00621196600F024
:1000400034F8196E01211966002018661A6600F04E
:100050002CF8196E196E196E052000F02FF8012189
:100060000842F9D1002199601B49196000215960AB
:100070001A491B48016001219960EB211966A021F2
:10008000196600F012F800219960164914480160C1
:100090000121996001BC002800D000471248134993
:1000A000086003C880F30888084703B5996A0420EC
:1000B0000142FBD001200142F8D103BD02B5186610
:1000C0001866FFF7F2FF186E186E02BD00000240BE
:1000D000000000180000070000035F00212200005C
:1000E000F4000018222000A00001001008ED00E03C
:1000F00000000000000000000000000074B24E7A12
:1001000000200420F7010010C3010010C5010010F9
:10011000C1010010C1010010C1010010C101001097
:10012000C1010010C1010010C1010010C701001081
:10013000C1010010C1010010C9010010CB01001065
:10014000CD010010CD010010CD010010CD01001037
:10015000CD010010CD010010CD010010CD01001027
:10016000CD010010CD010010CD010010CD01001017
:10017000CD010010CD010010CD010010CD01001007
:10018000CD010010CD010010CD010010CD010010F7
:10019000CD010010CD010010CD010010CD010010E7
:1001A000CD010010CD010010CD010010CD010010D7
:1001B000CD010010CD010010CD010010CD010010C7
:1001C00000BE00BE00BE00BE00BE00BEEFF3058054
:1001D000103800BEF2EB887138AB00105CAB001039
:1001E0003402001090A31AE700201F49086006C8D7
:1001F00081F3088810471D48006800282FD10DA4FE
:100200000ECC002902D000F012F8F9E71849194A7B
:10021000002000E001C19142FCD1174988471749ED
:1002200088471749884700BEFDE701C901C29A42C5
:10023000FBD370475CAB0010C00000209811002079
:1002400034BC0010000004200000042034BC001066
:10025000001004200010042000000000704709482E
:1002600005F024F80047000008ED00E0000000D091
:1002700098110020B81F0020A93F0010A50500100C
:10028000653F00105756000006005250ABB3605354
:10029000B0A3001006005250861C0302C0A3001039
:1002A000060052505422A29DCCA3001005005250CB
:1002B000DE65F46834BC0010F8B5C04610B5064CD5
:1002C0002378002B07D1054B002B02D0044800E017
:1002D00000BF0123237010BDB012002000000000F9
:1002E000308A0010044B10B5002B03D0034904489A
:1002F00000E000BF10BDC04600000000B4120020A6
:10030000308A0010024A1378013313707047C046D8
:10031000B31F002070B50400424B1B78002B05D0A2
:10032000042C25D8A400404B1B599F4603F0DCF851
:100330003E4B9C4660443E4B186101225A633D4847
:1003400005F046FDECE73C483C4B020032CB32C2A4
:1003500032CB32C212CB12C21B781370384A1378D8
:100360003033437593783033C377012101F0CEFBEE
:1003700070BD3148314B020032CB32C232CB32C277
:1003800012CB12C21B7813702D4AD37830334375C9
:1003900053793033C377012101F0B8FBE8E72648F1
:1003A000264B020032CB32C232CB32C212CB12C247
:1003B0001B781370224A937930334375137A3033A4
:1003C000C377012101F0A2FBD2E71B481B4B0200BF
:1003D00032CB32C232CB32C212CB12C21B78137074
:1003E000174A537A30334375D37A3033C3770121B8
:1003F00001F08CFBBCE71048104B020032CB32C23C
:1004000032CB32C212CB12C21B7813700C4A137B50
:1004100030334375937B3033C377012101F076FB92
:10042000A6E7C046AB1F0020688A001040420F00BC
:1004300000400540308A0010300C0020448A001033
:10044000500C002070B584B004000D0016000F237E
:100450006B4412221A70204805F0EAFC200001F0DB
:10046000BBFA0028FAD01D4805F0E2FC200001F09C
:10047000C7FA1B4805F0DCFC00941A4B2A006021E7
:10048000200000F0C7FE002821D1174805F0D0FC5D
:100490000F236B4432002900200000F0ECFE0028FE
:1004A00011D1124805F0C4FC002503E0705D05F091
:1004B0005BFC0135042DF9DD200000F0D6FE0A209A
:1004C00005F052FC06E00A4805F0B2FC02E00948DB
:1004D00005F0AEFC04B070BD7C8A0010948A001058
:1004E000A08A0010280C0020B08A0010C88A0010D2
:1004F000E08A0010FC8A001070B505001F4805F066
:1005000097FC280001F068FA041EFAD01C4805F098
:100510008FFC280001F074FA1A4805F089FC2900C4
:10052000280001F01BFA184805F082FC0026032E73
:1005300006DCAB195978154805F07AFC0136F6E768
:10054000134805F075FC013504221249280008F013
:100550006DF9002804D1104805F06AFC200070BD38
:100560000E4805F065FC04220A49280008F05EF9EF
:1005700001000B4805F05CFC0024EFE7188B00102D
:100580002C8B0010408B0010508B00105C8B0010E7
:10059000F8920010600C0020608B00108C8B001013
:1005A000A48B0010F0B5D6464F464646C0B592B073
:1005B00000F090F90500B14900F0DEFAB04802F011
:1005C000DFFE142200210DA805F0C6FA01F006FB9B
:1005D000AC4805F0FDFB33236B4430221A70002435
:1005E0000B940A9402F08EFC04AB02930194A64B88
:1005F0000093A64A002302F0CDFD013400239A4661
:100600009846994643E0A248A24B0200C2CBC2C220
:10061000C2CBC2C242CB42C21B781370012101F08F
:1006200075FA002C15D02800FFF766FF0028EAD0E5
:100630009748994B020052CB52C252CB52C2196812
:100640001160998891809B799371012101F05EFA84
:10065000544601F00FFB061E19D0904805F0E8FB48
:100660008B4B9C468E4B624683CB83C283CB83C22B
:1006700003CB03C21B8813800121604601F046FAB8
:100680000020FFF747FEB24601E0002B13D153468E
:10069000002BFAD1002CC4D07D48824B0200C2CB83
:1006A000C2C2C2CBC2C242CB42C21B88138001214C
:1006B00001F02CFAB5E733266E440AAA0BA93000E4
:1006C00001F072FB3378412B4BD033236B441B7802
:1006D000442B65D033236B441B78422B00D19BE025
:1006E00033236B441B78442BD1D14346002BCED00F
:1006F00067486D4B0200C2CBC2C2C2CBC2C242CB62
:1007000042C21B781370012101F000FA674A0121EF
:100710002800FFF797FE664B1B78013B5A00D31861
:10072000644AD25C002A00D19AE0013A6149CA5475
:100730005748614B0200C2CBC2C2C2CBC2C21968C9
:1007400011601B791371012101F0E0F90B995B48ED
:1007500005F06EFB564B1878FFF7DCFD002398463A
:1007600095E7574805F064FB7A2232704848554BAC
:100770000200C2CBC2C2C2CBC2C242CB42C21B78B1
:100780001370012101F0C2F9494A01212800FFF745
:1007900059FE002300E00133022BFCD9D14694E737
:1007A0004B46002B96D03A483F4B0200C2CBC2C208
:1007B000C2CBC2C242CB42C21B781370012101F0EE
:1007C000A5F93A4E320001212800FFF73BFE384BD5
:1007D0001B78013B5A00D2183649895CF35C994278
:1007E0000DD20131334B99540B99344805F020FB5D
:1007F0002F4B1878FFF78EFD002399466AE72448AF
:10080000314B0200C2CBC2C2C2CBC2C242CB42C237
:10081000012101F07BF9E7E70F3B6B447A221A7064
:100820001B482A4B0200C2CBC2C2C2CBC2C242CBBF
:1008300042C21B781370012101F068F91C4E32008E
:1008400001212800FFF7FEFD3078421E53009B185F
:100850001849CA5C013ACA54FFF75CFDD0463FE72D
:100860000B481B4B0200C2CBC2C2C2CBC2C242CB9E
:1008700042C2012101F04AF968E7C04600C00340C6
:1008800088130000C48B00100503001040420F00C5
:10089000300C0020288C0010088C00104C8C0010AC
:1008A000688C0010E48B0010C48C00102418002009
:1008B00038180020500C0020348D0010E88C0010F7
:1008C0008C8C0010A08C0010548D0010108D001026
:1008D000748D001030B50023002B0ED00E4C226812
:1008E0000E4853009D18E900411811250D61511C57
:1008F00021609B18DA00801830BD074A1468074A47
:1009000060000519E9005118C91800254D750D75CD
:1009100001339BB2E0E7C046CC1200200C1D002042
:1009200070B582B004006B4619715A710369C046F4
:10093000C046C04601252A009A40D0263606B2613C
:10094000C046C046C046022201A9C06808F028F887
:100950002369C046C046C0469D407561C046C0463A
:10096000C04602B070BDF0B5C64600B500AF8046C7
:100970000C001600013230000830C008C000694683
:10098000091A8D460C70002403E0651C1C5D4C5553
:10099000ECB2B442F9D343461B69C046C046C046D8
:1009A000012420009840D0252D06A861C046C046ED
:1009B000C0464346D86807F0F3FF43461B69C0466C
:1009C000C046C0469C406C61C046C046C046BD465D
:1009D00080BCB846F0BD70B582B0040000236A4602
:1009E000D371901D80235B420B4303702369C04683
:1009F000C046C04601252A009A40D0263606B2617C
:100A0000C046C046C04601220100E06807F0C8FFAA
:100A100001236A4607320021E06807F091FF23694D
:100A2000C046C046C0469D407561C046C046C046EF
:100A30006B46D87902B070BDF8B5CE46474680B552
:100A400006009046994680277F420F43FFB2026915
:100A5000C046C046C04601239340D022120693618F
:100A6000C046C046C046002408E04B461D19390068
:100A70003000FFF7B0FF28700134E4B24445F4D3EE
:100A80003269C046C046C04601239340D0221206B8
:100A90005361C046C046C046C0BCB946B046F8BD6A
:100AA00070B504000D001600FFF795FF02003243F9
:100AB000D2B229002000FFF733FF70BD70B50400EB
:100AC0000D001600FFF787FFB043C2B229002000D7
:100AD000FFF726FF70BD0000F8B505000F001400F9
:100AE0001E0000220221FFF71BFF04220A2128001A
:100AF000FFF716FF802214212800FFF7D1FF3B00EB
:100B0000220012212800FFF72EFF032202212800D5
:100B1000FFF706FF0E4C0A212800FFF75CFF430792
:100B200005D4013CA4B2002CF5D103200FE0002233
:100B300002212800FFF7F4FE44212800FFF74BFFB5
:100B4000307042212800FFF746FF70700020F8BD8A
:100B50008813000010B504002821FFF73CFF032391
:100B60000340032B00D110BD03220243D2B228213F
:100B70002000FFF7D5FEF6E7F8B50400304DC5605C
:100B8000D026360680277F03B761FA20800002F066
:100B9000F7FB7761322002F0F3FB112001F00CFA31
:100BA00080239B02736273612649280007F0B4FC1E
:100BB0006A6802231A40244EC021890131430B6028
:100BC000286807214140CF200840802149010D437A
:100BD000286080239B0133431A600121122001F019
:100BE000B9F90121132001F0B5F90121102001F01C
:100BF000B1F90F2202212000FFF792FE802254213A
:100C00002000FFF78DFEA92256212000FFF788FE65
:100C1000032258212000FFF783FEE8225A212000FA
:100C2000FFF77EFE40222A212000FFF779FE3D22B9
:100C300022212000FFF774FE2000FFF78BFFF8BD94
:100C400000C0034040420F0004C00340F0B5DE4640
:100C500057464E464546E0B587B004000F001500E4
:100C6000039310AB1B789A4614AB1B78994615ABCF
:100C70001B789B4600239846139B002B35D01A788F
:100C80004B461E01F6B2B618F6B200220221200031
:100C9000FFF746FE7F2208212000FFF741FE802259
:100CA00014212000FFF7FCFE039B52461221200076
:100CB000FFF759FE32001A212000FFF731FE3A00FB
:100CC00002212000FFF72CFE0C2F10D0FA26F60090
:100CD00008212000FFF77FFE05420ED1C30778D41C
:100CE000013E002EF4D1032074E00022C8E78022E8
:100CF0001A212000FFF7D4FEE8E70C212000FFF7BF
:100D00006AFE0500132303426BD1119B002B20D0F8
:100D1000129B002B1DD014212000FFF75CFE020067
:100D2000129B1B7883425ED3129B18704B46009334
:100D3000119B12212000FFF77FFE18212000FFF7F2
:100D40004AFE072303409846139B002B01D04246DE
:100D50001A700823180028402B4246D1119B002B03
:100D600038D0129B002B35D05B46002B32D0129B23
:100D70001B78012B06D0012B27D94246002A06D02A
:100D8000072027E04246042AF5D1FF2022E0023B5B
:100D9000DAB205AB11992000FFF79EFE002819D1A9
:100DA000129B1B78119AD218023A117805AA127870
:100DB00091420CD1119A94466344013B1A7805ABD9
:100DC0005B789A4206D0072004E0072002E0072063
:100DD00000E0032007B0F0BCBB46B246A946A046DF
:100DE000F0BD0120F6E70420F4E70220F2E730B579
:100DF00087B00CAC24780DAD2D78059504940B9C30
:100E000003940A9C0294019300920B0030220C215F
:100E1000FFF71CFF07B030BD70B588B006001500A5
:100E20001C0017236B441970002A22D02378012B51
:100E300021D980221C21FFF741FE1F236B4407228A
:100E40001A70002203920292019300942B00013247
:100E5000172169443000FFF7CAFF00280CD123781E
:100E6000022B0BD11D336B441878002804D00120CD
:100E700002E0042000E0042008B070BD0120FBE780
:100E800010B513000A002621FFF7C6FF10BDF0B50C
:100E9000DE4657464E464546E0B58DB08146069142
:100EA0000592502A00D984E180221C21FFF706FE1A
:100EB0000123079300230493049B002B00D06FE1D0
:100EC000079B022B44D0032B54D0012B08D00524C0
:100ED00020000DB0F0BCBB46B246A946A046F0BD0E
:100EE00009AB93221A70059B002B05D0069B1B783B
:100EF000042B2BD8002100E0002100239B465B46F9
:100F0000DB00059AD31A5DB21B063AD400293AD009
:100F100009AB88229A70853AE817072303405B19CA
:100F2000DB10D8B2EBB2984607232B405C1EA341DE
:100F30001B18DBB2002B28D1002902D0454608350A
:100F40006DB2049B9A46B0464F4690E00121D4E72B
:100F500009AB95221A70059B002B05D0069B1B78C8
:100F6000072B05D8002100E0002103239B46C6E79C
:100F70000121FAE709AB97221A70049906239B46D0
:100F8000BDE70025C2E70222C6E700290DD00320F5
:100F900084469C4500D39C46002367468C4611003E
:100FA0005A46AB46069882460BE004208446F0E79A
:100FB000D0184C1C5044457809A845540133DBB285
:100FC000E1B2BB42F4D35D4661469346B4E709A95A
:100FD00070234B708878CC780A794B796040424016
:100FE00053408B711B2304AA9446634407223800A4
:100FF000FFF772FD041E00D06AE7132304AA94468B
:10100000634400221A701223634403221A701A23C5
:10101000634498460923994651E01C213800FFF7A4
:10102000DAFC830600D553E71F231A00024003426F
:1010300000D12022AA4200DCBDE055B2511ECB17E0
:101040005B0FC91807200140C91ACBB2581E834153
:10105000D2089B180133DBB2FF22114001208840E7
:1010600009A9CA5C0243CA5401E001239A465346C7
:10107000002B4AD11F2DAADCEB17580F2A18072185
:101080000A40121AD2B2132004ACA4466044027083
:1010900019404919C910C9B20231C9B20B01DBB2FA
:1010A000D31809A84370531E9A415218D3B29946D7
:1010B000804688440923591A122363441970132463
:1010C00004AB9C46644426783201D2B29219D2B263
:1010D0001A213800FFF724FC0023039302960194A1
:1010E000123304AA94466344009343464A4609A92E
:1010F0003800FFF77CFE040002288ED0002800D0C4
:10110000E6E61F2DB1DC2025B1E74646B94609AB1E
:101110009B78882B08D00221882B07D00424002339
:101120005D46069A94460CE00321F5E70324F6E7B2
:10113000481CEA1809AF795C624451700133DBB294
:10114000C1B2A342F4D3122304AA944663441B7889
:10115000032B32D1103363441B78002B2FD116336D
:101160006344012231004846FFF7B6FC041E00D05C
:10117000AEE609AB9A7873789A4222D109ABDA7855
:10118000B3789A421FD133785A0704D5079B0133AD
:10119000DBB2079390E6069AD372534604938BE62C
:1011A000079A5300944663440133069A137000244F
:1011B0008EE606248CE605248AE6012488E60124CE
:1011C00086E6072484E6072482E630B587B005006A
:1011D00050236A4613750023537516336B4402225D
:1011E00005A9FFF779FC041E02D0200007B030BD2E
:1011F00000230393029301930093042205A928007E
:10120000FFF7F5FD0328F0D0002801D00400ECE73B
:101210000124EAE770B58AB00E9E07AC21706270B7
:10122000002205E0911C9D5C07AC65540132D2B2EE
:10123000052AF7D9002307E01A000832F1184C7884
:1012400007A98C540133DBB2032BF5D90023059396
:1012500004930393029301930C33009307AB102282
:101260000E21FFF7F3FC0AB070BD10B50822102163
:10127000FFF724FC10BD70B584B0060014001D00FB
:10128000002A19D01B78112B18D9302313705170F4
:10129000931C02222100FFF71FFC00280FD101231D
:1012A000039300230293019300952300042221005D
:1012B0003000FFF79CFD02E0042000E0042004B0B1
:1012C00070BD0000072806D815D880000D4B1B58AC
:1012D0009F460D4802E0FF2811D10C4870470C488A
:1012E000FCE70C48FAE70C48F8E70C48F6E70C482E
:1012F000F4E70C48F2E70C48F0E70C48EEE70A4840
:10130000ECE7C046988E0010688E0010748E0010B6
:10131000BC8D0010D08D0010EC8D0010088E0010D8
:10132000388E00104C8E0010948D0010A48D00108B
:101330007F231840402813D880000B4B1B589F4632
:10134000FF2000E0042070470520FCE70620FAE7B4
:101350000720F8E70820F6E70120F4E70220F2E78B
:101360000020F0E70320EEE7B88E001008280BD825
:10137000002819D0082805D880000E4B1B589F461E
:101380000D4804E00D4802E0FF2811D10C487047D9
:101390000C48FCE70C48FAE70C48F8E70C48F6E77D
:1013A0000C48F4E70C48F2E70448F0E70B48EEE796
:1013B0000248ECE7AC90001064900010BC8F001065
:1013C00088900010F48F00100C90001018900010FE
:1013D000249000104890001054900010CC8F001002
:1013E00070B582B00600214804F022FD00240DE013
:1013F000202004F0B9FC75196A781D4901A803F092
:1014000029FF01A804F014FD0134E4B23378A342AB
:1014100008D9250033195B780F2BE9D8154804F05B
:1014200007FDE8E7144804F0D3FC144804F000FD7D
:10143000F37A0F2B15D9F27A0D4901A803F00AFFB0
:1014400001A804F0F5FCF07AFFF772FF04000C48E5
:1014500004F0EEFC2000FFF789FF04F0E9FC02B085
:1014600070BD302004F080FCE5E7C04674910010A8
:10147000E8900010C8A70010148B00108091001095
:101480008C910010F0B5DE4657464E464546E0B515
:1014900091B00390069107929946002305934B461D
:1014A0001F2B0BD89F00FBB2984604230493049B88
:1014B0005D1E012342460292984604E1272B25D85F
:1014C0004F46203F3F01FFB2803FFBB298461023BA
:1014D0000493ECE7C54804F0ABFC06E1C44804F013
:1014E000A7FC0DE1C34804F0A3FC12E1202004F0A6
:1014F0003BFC0EE18246C04804F09AFC5046FFF7E0
:10150000E1FE04F095FC0A2004F02EFC11B0F0BCC2
:10151000BB46B246A946A046F0BD202004F024FCFC
:1015200009AB9A5DB5490FA803F094FE0FA804F02B
:101530007FFC03233B40032B0CD00137FFB20F2F5E
:101540000CD83E0009ABDB5D0F2BE6D8AC4804F0AD
:101550006FFCE5E7202004F007FCEEE74346002B94
:101560005DD009ABDE7931091A7A0F2007001740E8
:10157000B84612099B7907001F401B0930400F260F
:10158000BE43B14200D1F5E001230126334005936B
:10159000880004239A4603409C4643465800022391
:1015A0001840674638433700174007430EA80770B6
:1015B0004F0053461F40BC464746023B1F40BB46B8
:1015C00067465B461F43BC4653101F003740BB466F
:1015D00067465B461F43477057460F40BB4643462E
:1015E0005B101F0002231F40BC465F4663461F433B
:1015F000BC4693101F003740BB4667465B461F43FF
:10160000877049105346194043469B1002273B40C0
:101610001943D21016403143C17000239846049BF1
:10162000042B00D1B8E00521280003F06BFEC6B200
:10163000032E00D1ACE0681C052103F063FE864256
:1016400000D1A7E00123002B30D06E4804F0F0FB5E
:101650000EAB9B5D9B469A0801252A406A4B9A4631
:1016600019000FA803F0F6FD0FA804F0E1FB2020FD
:1016700004F07AFB5B465A082A4051460FA803F053
:10168000E9FD0FA804F0D4FB202004F06DFB5A46BE
:101690002A4051460FA803F0DDFD0FA804F0C8FB57
:1016A0005A4804F0C5FB059B002B77D1032E05D0CB
:1016B0000EAB9B5D012B75D0062B73D0544804F004
:1016C00087FB013C65B2002D00DA1FE7ECB2029BFC
:1016D000E618F6B24346002B00D1FFE64B46092B35
:1016E00000D9F7E6434804F0A3FB4A4646490FA851
:1016F00003F0B0FD0FA804F09BFB3E4804F098FBFC
:10170000092E00D8EEE6632E00D9EFE6374804F044
:101710008FFB32003C490FA803F09CFD0FA804F09A
:1017200087FB324804F084FB4346002B0AD0069B1B
:101730000093079B029A60210398FFF76BFD002836
:1017400000D0D7E61F2306AA9446634412221A70DB
:1017500009AA31000398FFF78EFD0600071E00D18D
:10176000EDE62C4804F064FB3000FFF7ABFD04F01D
:101770005FFBA6E70F269E43B04501D0012304E797
:101780000F2383439A4201D00123FEE60023FCE6A7
:10179000012358E7002356E7260056E71E4804F0C9
:1017A00047FB83E709ADEE783606AA7812041643A4
:1017B0006A78120216432A781643184804F038FB58
:1017C000FF2232400D4E31000FA803F043FD0FA859
:1017D00004F02EFB124804F02BFB2A7B31000FA8EB
:1017E00003F038FD0FA804F023FB67E79C9100107D
:1017F000A4910010A8910010AC910010E890001086
:10180000C8A70010E0910010A0910010E491001012
:10181000148B0010C8910010E89100101092001075
:101820001C920010F8B505000E001F00042A09D014
:10183000052A09D0032A14D105240D4804F0C8FA5A
:10184000013C0CE01024F8E72824F6E7E4B223007A
:101850003A0031002800FFF715FE013C64B2002C6D
:10186000F4DA2800FFF7B1FC2800FFF7FEFCF8BD12
:1018700024920010F0B5CE4600B588B081463048BD
:1018800004F0A6FA002548E02E4804F0D1FA0198A9
:10189000FFF718FD04F0CCFA08B080BCB946F0BDE3
:1018A000202004F061FA29E0202004F05DFA02AB68
:1018B0001A5D254907A803F0CDFC07A804F0B8FA83
:1018C0000136F6B2032E0BD8BC00E4B2A419E4B280
:1018D00002AB1B5D0F2BE7D81C4804F0A9FAE6E722
:1018E0001B4804F075FA0137FFB2032F13D8EC1927
:1018F000E4B2092CD4D8174804F09AFA2200164909
:1019000007A803F0A7FC07A804F092FA114804F016
:101910008FFA019ED6E70435EDB20F2DBCD8132304
:1019200002AA9446634412221A706246290048466D
:10193000FFF7A1FC01900028A6D1019FD5E7C04682
:1019400074920010C8910010E8900010C8A7001011
:10195000148B00109C910010A091001030B583B042
:1019600005000C000800FFF73BFDE07AFFF7E0FC04
:101970000200062828D012D8022805D9C31EDBB2DF
:10198000022B04D8002317E042B2002A0BD11048E2
:1019900004F01EFA2800FFF718FC03B030BD073A28
:1019A000D2B2012AF3D80B4804F012FAEFE7FF2174
:1019B0006846C1540133DBB2052BF8D96B462100D0
:1019C0002800FFF72FFFE2E72800FFF753FFDEE7CD
:1019D000148B00108892001000B583B06B46DA1C9F
:1019E0000223137001A9FFF74BFA002805D0022843
:1019F00001D0002002E0013800E0012003B000BD6A
:101A000010B500220100FFF742FA43425841C0B22C
:101A100010BD000000B585B00F226A44107000238D
:101A2000009301332721024806F0F4FE05B000BD03
:101A3000400D0020D0B504009626B60000273000E7
:101A4000390001F071FC04202043C0B2FFF7E2FF2F
:101A50003000390001F068FC042320009843FFF7B0
:101A6000D9FF3000390001F05FFCD0BD70B50F2305
:101A700005009D436DB249B20D4308231D43EDB2ED
:101A800004010C4364B21C43E4B22800FFF7C2FF18
:101A90002800FFF7CFFF2000FFF7BCFF2000FFF773
:101AA000C9FF70BD10B500210120FFF7DFFF10BD99
:101AB00010B5002806D180310800C0B20021FFF720
:101AC000D5FF10BDC0310800F7E710B50021032095
:101AD000FFF7CCFF00210320FFF7C8FF0021032000
:101AE000FFF7C4FF00210220FFF7C0FF00210620FE
:101AF000FFF7BCFF00212820FFF7B8FF00210C20D2
:101B0000FFF7B4FFFFF7CEFF10BD000070B5050072
:101B100019491A4806F052FE0321042000F01AFA6F
:101B20000321052000F016FA00220121042000F014
:101B300029FA00220121052000F024FAFFF7C5FF51
:101B4000FFF7B0FF002409E0210010390120FFF762
:101B5000AFFF285D0121FFF789FF01341F2C0ADC4C
:101B60000F2CF1DC21000020FFF7A2FF285D0121EE
:101B7000FFF77CFFF1E770BDA0860100400D00205B
:101B800010B50400002904D0134B00200021186078
:101B90005960114A13685268134314D0002006F0AC
:101BA00097FE0200C3170C4908684968121A8B4156
:101BB0002100E41701209C4202DC02D1914200D9AD
:101BC0000020C0B210BD002006F082FEC217024BFA
:101BD00018605A60E2E7C046A012002070B504F019
:101BE00033F900240BE0A200114BD558280000F077
:101BF000E3F90123AB40D022120653620134032CD7
:101C0000F1DD002410E0A2000A4BD558280000F0B6
:101C1000D3F90123AB40D0221206936201220021A6
:101C2000280000F0AFF90134032CECDD70BDC04694
:101C30000C930010FC920010F0B506000024002563
:101C4000002006E0002D03D0934201D1F0BD012514
:101C50000134335D002BF9D08B42F8D0002DF1D048
:101C60002F2BEFD9392BEDD8870038184000303BA7
:101C7000C018EDE7F8B5CE46474680B500255AE0D6
:101C80003E4B9B78322B45D13C4BDB78332B41D1FB
:101C90003B4804F0CDF86CE0D0231B065B68D340D2
:101CA000DB0704D4AA00374B9B1800221A550134D5
:101CB000032C38DCA300344A9A58D0231B065B68F7
:101CC000D340DB07E8D5314B1F78002FE4D000224A
:101CD0001A702F4B9946AA002E4B90464344195D2B
:101CE000264B4A46126899542B4804F0A1F8254B1C
:101CF000434401221A554B461B6801334A46136080
:101D0000042BD4D11D4B1B78312B03D11B4B5B789B
:101D1000322BB5D0214804F08BF80023174A13600A
:101D20001B4A1360C3E7194B1B78002B0FD0D0233D
:101D30001B069E610135032D1ADCAB00184A9B5827
:101D400001269E40D0231B065E610024B0E7154BA0
:101D500019780120FFF714FF002805D00123114A4C
:101D600013700A4A1370E2E70E4B00221A70DEE786
:101D700000273800C0BCB946B046F8BD041D00209D
:101D80004C8C0010801F0020FC920010640C00207E
:101D9000881800201C930010D0920010E0920010D0
:101DA0000C930010B51F0020F8B5CE46474680B50D
:101DB0000500894690460026A2E0594B00221A7081
:101DC000443241215748FFF737FF002801DD4B46D9
:101DD00018600023544A1360524A136054E0534B76
:101DE00000221A70443242215148FFF725FF002893
:101DF00001DB4346186000234E4A13604C4A1360CF
:101E000061E0D0231B065B68D340DB0704D4B2003B
:101E1000494B9B1800221A55484B1B78002B5AD06F
:101E20000134032C68DCA300454A9A58D0231B06D2
:101E30005B68D340DB07E4D5404B1B78002BE0D038
:101E4000B300404AD218125D2A703B4AD3180122CF
:101E50001A553A4B00221A702B78412B03D0304B85
:101E60001B78002B17D02E4B01221A702978364888
:101E700003F0DEFF2C4A136828782A49C85401333E
:101E800013602B78442B98D0274B1B68042B02DD62
:101E9000254B00221A602B78422B03D0234B1B7852
:101EA000002BB9D0214B01221A702978264803F063
:101EB000BFFF204A136828781D49C85401331360B6
:101EC0002B78442B8BD01B4B1B68052BA4DD194BA7
:101ED00000221A60A0E71D4B19780120FFF750FE81
:101EE000002805D00123194A1370144A137097E78C
:101EF000164B00221A7093E7D0231B069F61013610
:101F0000032E09DCB300124A9B5801279F40D023BF
:101F10001B065F61002484E7C0BCB946B046F8BD2B
:101F2000AE1F0020901F002080180020AF1F00204F
:101F3000941F002084180020801F0020640C0020C3
:101F4000FC9200101C930010D0920010B51F0020CE
:101F50000C93001010B58300084A944663441C6833
:101F600040226240C02414408022520113431C606E
:101F7000C000034B9C466044416010BD04C001405A
:101F80000040014080000B4B9C46604400290DD06E
:101F90000823002A0CD004221343026853400C2269
:101FA0001340802252011043036070470023F0E782
:101FB0000022F1E704C0014010B501238340D02284
:101FC0001206936293610521FFF7C4FF10BD000064
:101FD000034B1B6802201840431E9841C0B2704753
:101FE00000C00640EFF3108072B6034B1B68002B55
:101FF000FBD0BFF35F8F70472C0100D0BFF35F8F22
:10200000024B00221A6080F3108870472C0100D028
:10201000F8B506000C001500FFF7E4FFE308F71819
:10202000F15C07222240012393400B4205D1DBB231
:102030000B433B70FFF7E2FFF8BD2100280002F0E0
:102040005DF8F0B583B00600019114001F00FFF7A2
:10205000C9FF00E00134BC420CD8E308F518F35C7A
:102060000721214001228A401A42F3D1D2B21A43F9
:102070002A7001E001246442FFF7C0FF002C02DB5C
:10208000200003B0F0BD019B002BF9D0089802F0AE
:1020900035F80000002307E0054A9A189200BFF3C4
:1020A0005F8F0021116001331F2BF5D97047C046A7
:1020B00040000034054A1078431CDBB21370172B24
:1020C00002D9130010221A707047C046650C002018
:1020D00000B583B00100044B00931F23182203486E
:1020E000FFF7AFFF03B000BD2C9300105418002081
:1020F000074B9B68103080001950BFF35F8FBFF310
:102100005F8F044B0021196082F310887047C0462E
:1021100000ED00E0240100D010B5091A081F0A4B99
:102120009C466144094A914208D8C30706D440102E
:102130004005400D064B184380B210BD054B064AC2
:10214000A321064801F012FFFC070000FE0F00006B
:1021500000E0FFFF48930010D49500107893001022
:1021600010B5091A04394C08090B08D14905490D65
:10217000064A11430180064B2343438010BD054BA3
:10218000054AAB21054801F0F1FEC04600F0FFFF13
:1021900000F8FFFFD4930010A8950010789300106A
:1021A00001238340034A10681840431E9841C0B27F
:1021B0007047C04600E100E0002904D0034B1860DE
:1021C000034B18607047034B1860FBE780E200E0A8
:1021D00000E100E080E100E010B501238340180039
:1021E000FFF7EAFF10BD000001238340014A13609E
:1021F0007047C04600E200E0024B9B681030800050
:10220000C058704700ED00E010B5FFF7F5FF00285B
:1022100005D0054BC01A2F2803D8012010BD00207F
:10222000FCE70020FAE7C046680C002070B5040007
:102230000D00EFF3108672B60C4B1B68002BFBD021
:10224000BFF35F8F2000FFF7D7FF094B984201D003
:10225000A84205D1320029002000FFF749FF70BDD8
:10226000044B054A8621054801F080FE240100D078
:10227000CD010010E4930010089600107893001030
:10228000F0B5DE4657464E464546E0B589B0814634
:1022900001911500EFF3108A72B6744B1B68002B86
:1022A000FBD0BFF35F8F724B0027DF57002F40DB5F
:1022B0007C00E419A4006F4824180622A2566C4B37
:1022C0001A706D4B9A684B4610339B00D358984652
:1022D0001E001B1A2F2B38D9684B98452FD105AEFD
:1022E000674B33807B009B46D8198000614B984632
:1022F000404402306349FFF70FFF7080624BB380A8
:10230000FF23B371F571019B07935F44BF004744FE
:102310000ECE0EC701231C43A046524641464846F6
:10232000FFF7E6FE09B0F0BCBB46B246A946A046A0
:10233000F0BD564B564AD721564801F017FE564B72
:10234000534ADE21534801F011FEC04340440C21A2
:1023500003F000F8002912D101239E43B346330055
:102360000026DA79AA4211D90621595600290CDB38
:102370004A00521892001E003E4B9B18F1E7474B53
:10238000434AEA21434801F0F1FD1E00002E3AD0F5
:1023900005AB434A1A80813A5A800623F3560293CA
:1023A000002B17DA3F4805AB9B469880029A9A713A
:1023B000DD71019A0792301D2100FFF7ADFEB0805C
:1023C000B7717B00DB199B002A4FFF185B4607CBD8
:1023D00007C7A2E77800C0198000264BC018043058
:1023E000321DB388D90A1C2907D15B055915023162
:1023F00049005118FFF790FED5E72B4B2B4AB1212E
:10240000244801F0B3FD05AE1D4B33807B000293E1
:10241000D8198000174A9046020042440392901C4B
:102420001849FFF779FE7080039A101D5946FFF78F
:1024300073FEB0801E4B5A464146521A52415343D6
:102440001B0DB371F571019A0792029B9C4667447C
:10245000BF0047440ECE0EC7114B5A461380813B36
:10246000538001231C43A04657E7C046240100D0F7
:10247000B01F0020680C002000ED00E0CD0100102E
:1024800000A1FFFF980C002001BDFFFF1C9400106D
:10249000F095001078930010449400106C94001094
:1024A0000148000001BD0000E0940010E09500101C
:1024B000AAAA0000F0B5CE46474680B583B0060014
:1024C0000D00EFF3108872B6564B1B68002BFBD043
:1024D000BFF35F8F544B9A6834001034A300D75871
:1024E000524B9F4207D0AF4200D198E00197504B2A
:1024F000FB1A2F2B09D9424639003000FFF7F8FDAF
:1025000003B0C0BCB946B046F0BD3000FFF748FE8E
:10251000814600213000FFF75FFEBFF35F8FEFF3CE
:102520000581002901D08C4211D10123019C9C43DB
:102530000022A368AB4212D00622A256002A0DDB6D
:1025400053009B189B002200394CE418F1E7362118
:10255000384B394AFF31394801F008FD2200AB42BF
:1025600056D106256557002D38DB6B005B199A00A4
:102570002F4B9B189A68A260DA79E27106229A566C
:10258000A2719B795BB2002B0FDA2D48A0806B0003
:102590005B199B00264AD3182A4A11789971157045
:1025A00049463000FFF718FEA5E7201D6B005B19B8
:1025B0009B001F4A9B181A1D9B88D90A1C2907D10A
:1025C0005B055B15023359005118FFF7A5FDDDE7E8
:1025D0001D4B1E4AB121194801F0C8FC002912D137
:1025E000002A0ED0FF239371194B9380154A13785C
:1025F000A371184B0E49641A644163431B0D137099
:10260000CEE70A4FF2E7201D1349FFF7A9FDC7E700
:102610006A21124B084AFF31084801F0A7FC034F1A
:1026200069E7C046240100D000ED00E0CD010010B4
:10263000680C0020F8940010C095001078930010EA
:1026400001BD0000B01F0020E0940010E0950010D4
:1026500001BDFFFFAAAA0000A20C00202C950010CB
:1026600070B5012101432E4BCB1A2F2B28D8EFF345
:102670000583002B2BD0EFF3108C72B6294A126819
:10268000002AFBD0BFF35F8F274A0400244D641B50
:1026900064416243120D54B2244A92689B00D2589E
:1026A0008A421BD00022032A32D853009B189B0079
:1026B0001B49CB189B795BB2A3421FD00132F2E7D2
:1026C000C7211B4B1B4A49001B4801F04FFC9221BC
:1026D0001A4B184AFF31184801F048FC134A926817
:1026E0001749D150174B1A7882711C70BFF35F8F56
:1026F0000C4B00221A608CF3108870BD0D00530043
:10270000991889006918FF268E710F4A8A80E9E7B7
:10271000D1210E4B074A4900074801F027FCC0466B
:10272000680C0020240100D0AAAA000000ED00E0FF
:10273000349500108C950010789300105C95001073
:10274000CD010010B01F002001BDFFFF68950010F3
:102750000022044B02E0044902C30132072AFAD9DD
:102760007047C04600E400E08080808000B583B000
:102770000100064B0093052300220548FFF761FC8A
:10278000002801DB1F23181A03B000BD709500104C
:10279000B71F0020024B9C466144890001607047CE
:1027A0004000003410B50400FFF784FC0100200055
:1027B000FFF7F0FFFF232371BFF35F8F10BD10B54C
:1027C0000400FFF777FC01002000FFF7E3FFFF2381
:1027D000237100236371BFF35F8F10BD034B9C46D1
:1027E000614489000160BFF35F8F7047400000348F
:1027F00010B504000120FFF76BFC01002000FFF77B
:10280000EDFF10BD10B50C00CB68834207D1080066
:102810000B699847002809D02068616810BD5221D3
:10282000054B064AFF31064801F0A0FB0023E36098
:1028300000200021F2E7C04688970010249A00107B
:102840009C97001070B505000C00080000F028FFF0
:102850000949200000F068FEFFF72CFC074B9C465E
:102860006044800068602C75D0231B061B786B7554
:10287000A400034BE55070BD892B001040000034CC
:10288000481D00200A4B1A68EFF3108172B61368D6
:10289000002BFCD0BFF35F8F054B1B68BFF35F8F2E
:1028A00000221A6081F3108840BF00200021704789
:1028B000641F002010B5002922D003681B7B9942B9
:1028C0001ED8174B9C466144090183689C466144AD
:1028D0000C684968002A19D003681B7B9A4215D8F6
:1028E00083680F488446624412019A18106853683E
:1028F000020001208B4201D80ED00020C0B210BDD2
:10290000084B094A3C21094801F030FB054B064AB7
:102910003C21064801F02AFBA242EFD8EDE7C04671
:10292000FFFFFF0FF09700108C9A00109C9700108B
:1029300010B500291ED0037B99421BD84B005B18B1
:10294000033B0468A4466344002919D0002A1DD023
:10295000914221D0002A25D0047BA24222D80468CB
:1029600050008018033820188170197800291FD171
:102970001A7010BD104B114A6821114801F0F6FA87
:10298000104B114A6F310E4801F0F0FA0F4B0E4A0E
:1029900070210B4801F0EAFA0D4B0B4A71210848EF
:1029A00001F0E4FA044B054A6821054801F0DEFA1B
:1029B00041701A70DDE7C04614980010F89A0010B4
:1029C0003098001098980010D49A0010A498001025
:1029D000B098001070B506000D001400002914D046
:1029E000002A14D0806873689847002806D0220017
:1029F00029003000FFF79CFF280007E02A00210093
:102A00003000FFF795FF200000E0100070BD0800C7
:102A1000FCE70000F0B583B00500009201930AAB1B
:102A20001C780BAB1F78002C26D003685A7B94428D
:102A300007D10123002B19D1002C3BD1200003B07A
:102A4000F0BD002C0CD01A7B944209D81A686300A0
:102A50001B19033BD3189B78002BEBD00123E9E72C
:102A60003E4B3F4A68213F4801F080FA3E4B3F4AC7
:102A700067213F4801F07AFA03689C7B002CDBD089
:102A800012D01A7B94420FD862001219033A1968C7
:102A90008C46624451789973002900D1D973002380
:102AA000937053701370C7E72C4B2D4A68212D4843
:102AB00001F05CFA002C3AD02B681B7B9C4236D884
:102AC0002C4BE3181B01AA6894466344009A1A60D1
:102AD000019A5A60089A9A60099ADA602E68002C66
:102AE0002BD030D0337B9C422DD863001B19033B85
:102AF00032689446634400229A705A701A70717B4F
:102B000022003000FFF766FF7073844200D095E723
:102B1000287D009A019B00F04FFD061E01D0002F7A
:102B200017D00C9B002B00D188E71E7086E7124B54
:102B3000124A3C210E4801F019FA114B114AA52105
:102B4000084801F013FA054B054A6821054801F0D1
:102B50000DFA2868210000F067FFE2E714980010E2
:102B6000F89A001030980010C8980010049B0010CC
:102B70009C970010FFFFFF0FF09700108C9A001039
:102B800098970010E89A0010F0B5DE4657464E467A
:102B90004546E0B58BB00990002308938200B54B01
:102BA000D658370052E0B44BB44A3F21B44801F044
:102BB000DDF9B44BB44A3C21B44801F0D7F90029FF
:102BC00001D1002869D10021404600F023FFA04236
:102BD00019D12A686B6806920793AB689846EB6830
:102BE0009A464346002B14D0002C18D03B681B7B20
:102BF0009C4214D8631EFA68D35C08931B021843E6
:102C00003861002015E0A24BA24A8E219F4801F0B6
:102C1000ADF9A14B9F4A92219C4801F0A7F9994B2D
:102C20009E4A4121994801F0A1F900239A4698460D
:102C300000207B68BFF35F8F00221A6086F3108844
:102C40004346002B32D1002800D10CE100F04CFCAF
:102C500002000B1EA7DB0020002106900791786878
:102C6000EFF3108672B601680029FCD0BFF35F8FC6
:102C7000396888464C7B002CD7D09AD0097B8C428F
:102C800097D8874965182D01B9688C46654428682E
:102C90006968801A9941002991DD2A686B68099852
:102CA00000F08AFC00239A469846C2E7089B1B0264
:102CB0002343994651461800C04705000E007A6824
:102CC000EFF3108B72B6136859424B41D9B2002B07
:102CD000F9D1BFF35F8F002E1EDB002E46DD3B696E
:102CE000002B47D04B456DD100F0FEFB02000B1EC0
:102CF0006EDB52197341002B70DB002B72DB00215D
:102D00000491013103910294514601914146009191
:102D10003800FFF77FFE4CE03B69002BDDD04B45D0
:102D200014D1069A079B521BB341002B14DB002BD6
:102D300016DB002104910131039102945146019167
:102D4000414600913800FFF765FE32E0554B514A8D
:102D5000A1214E4801F00AF901225242524BE6E706
:102D6000454B464A3F21464801F000F9002E01D16B
:102D7000002DB4D13B68002C50D05A7B944237D1FF
:102D8000012100294AD1DA7B002A4DD19A7B002A01
:102D900003D1DA7B002A5AD19C73DC73002C5CD0FF
:102DA0003B681B7B9C4258D8FA68013C135D013399
:102DB000135500233B617A68BFF35F8F13608BF379
:102DC000108843E7374B334AA421304801F0CEF84E
:102DD000294B2A4A3F212A4801F0C8F801225242D1
:102DE000314B8AE7244B254A3F21254801F0BEF8A4
:102DF000002C0DD01A7B94420AD862001219033AB3
:102E00001868844662449278002ABAD00121B8E753
:102E1000264B274A6821274801F0A8F8264B274A65
:102E2000F621244801F0A2F8002A0AD0197B8A4230
:102E300007D851008A18033A19688C4662445470C6
:102E4000A4E71A4B1A4A68211A4801F08FF81C4B64
:102E50001A4AFB21174801F089F80A4B0F4A412111
:102E60000A4801F083F80BB0F0BCBB46B246A94655
:102E7000A046F0BD481D002094960010589A0010FE
:102E8000B0960010F09700108C9A00109C970010DC
:102E9000F0980010709A001008990010B09A001075
:102EA000FFFFFF0F14990010FFFFFF7F1498001021
:102EB000F89A00103098001050990010C49A001031
:102EC0007499001010B50C4B5B68002B04D00A21DC
:102ED0000A48FFF75FFC10BD074C2300084A102189
:102EE000206800F0A7FC032000F0F2FA0321200084
:102EF000FFF7A8FCEBE7C046B00C0020641F0020E1
:102F0000B528001010B5064B5B68002B01D00448B3
:102F100010BD044B044A5E21044801F027F8C04666
:102F2000B00C002088990010989A00109C9700100F
:102F3000F0B5DE4657464E464546E0B58BB0804676
:102F400016001F00149B9A46159B994616AB1B78DA
:102F50009B461F2302AA9446634400221A702BE06A
:102F6000002809D042461268127B904204D8421EC3
:102F70004146C9688A5C41E0404B414A4121414891
:102F800000F0F4FF07984CE0361BAF41002F07DB41
:102F9000002F11DA3C4B3D4A3F213D4800F0E6FF4F
:102FA000012676423B4FF3E7374B384A3F213848FA
:102FB00000F0DCFF002F4FDB43465A68EFF310842C
:102FC00072B6136859424B41D9B20791002BF8D120
:102FD000BFF35F8F1F3302AA944663440493002318
:102FE000039302934B4601935346009332003B00F8
:102FF0004046FFF70FFD031EB2D10200414649686B
:10300000BFF35F8F00250D6084F31088002B29D05B
:103010001F2302A98C4663441B78002BB2D11202F5
:103020001043002B20D05B46002B1DD04946D047D3
:1030300004000D0003000B431DD00029A4DB00F0A9
:1030400053FA06000F1EAFDB36196F41002FB1DABD
:10305000012676420F4FADE70B4B0C4A3F210C483F
:1030600000F084FF012040420BB0F0BCBB46B246EA
:10307000A946A046F0BD0798F6E7C046F0970010B5
:10308000B09A00109C97001094960010589A001067
:10309000B0960010FFFFFF7FF8B50400002900D1B3
:1030A00062E04268EFF3108572B6136858424341FC
:1030B000D8B2002BF9D1BFF35F8FCBB22268567B19
:1030C000B3421BD10120002848D0206988422BD070
:1030D000090AC9B2002B2ED02068007B83422AD86F
:1030E000581EE668305C88422BD000206368BFF32E
:1030F0005F8F00221A6085F31088F8BD002B0DD079
:10310000167BB3420AD85E00F618033E1768BC4629
:103110006644B678002ED6D00120D4E7134B144A6B
:103120006821144800F022FF2C21134B134AFF3171
:10313000134800F01BFF134B134A4121104800F0C5
:1031400015FF1900100000F06FFC0028CED1992166
:103150000E4B0A4A49000A4800F008FF23698B42D7
:10316000C4D100232361C1E70020C6E714980010F2
:10317000F89A001030980010AC990010409A001096
:103180009C970010F0970010B09A0010D099001092
:10319000407D7047F0B585B00700100019000C9E07
:1031A00013000B4301D101200021B7600A9B33615A
:1031B000306071600B9B7361CA17130050400400AC
:1031C00051400D00A41A9D4100F08EF902000B1E23
:1031D00012DB12196B41002B14DB002B16DB0121D3
:1031E000029101960C4900913800FFF7A1FEF060B2
:1031F000C043C00F05B0F0BD084B094A3F21094844
:1032000000F0B4FE01225242074BE6E7034B044AAA
:103210003F21044800F0AAFE0528001094960010F3
:10322000589A0010B0960010FFFFFF7FF0B587B0EE
:1032300006000F00EFF30583002B1FD10624644224
:10324000E517A4197D418D4202D803D1844201D9EA
:1032500000240025002D14DB0494059500F044F9AA
:1032600002000B1E13DBA41A9D41002D17DC14D0A5
:103270003000390000F044F907B0F0BD234800F0F9
:103280003DFF234B234A3F21234800F06FFE204B94
:10329000204A3F21204800F069FE002CE8D0FFF7CB
:1032A00031FE0023029301931C4B0093049A059B6B
:1032B000FFF73EFE002818DADAE7002300E00023DB
:1032C000002BD5D1164B1A68EFF3108172B6136834
:1032D000002BFCD0BFF35F8F114B1B68BFF35F8FD8
:1032E00000221A6081F3108820BF0499059A0D4BC3
:1032F0005B6A9A42E3D80B48806A884203D29A42BA
:10330000DBD00123DCE70123DAE7C046D4990010C3
:1033100094960010589A0010B0960010852800105E
:10332000641F00200040054070B504000D0000F04F
:10333000DBF802000B1E0ADB20002900801859412F
:1033400000290ADB00290CDBFFF770FF70BD084B7A
:10335000084A3F21084800F009FE01204042074981
:10336000F0E7034B034A3F21034800F0FFFDC0464E
:1033700094960010589A0010B0960010FFFFFF7F3F
:1033800010B5FA2292000023002102F079FBFFF72A
:10339000CBFF10BD70B584B005000C00EFF30583C2
:1033A000002B1ED1FFF7AEFD002302930193224BA9
:1033B00000932A002300FFF7BBFD061E23DD20BF7C
:1033C000FFF7A0FD3100FFF767FE1C4B5B6A9C42D4
:1033D0002DD81A4A926AAA422CD29C4225D00120AA
:1033E00026E0164B5B6A994209D8144A926A8242D7
:1033F00007D2994201D001201AE0002018E00020F5
:1034000016E0012014E00D4B5B6A9C4209D80B4A80
:10341000926AAA4207D29C4201D0012008E0002013
:1034200006E0002004E0012002E0002000E000208F
:1034300004B070BD0120FBE7852800100040054066
:1034400070B5EFF305801038EFF3108C72B61A4B9D
:103450001B68002BFBD0BFF35F8F0122130083405A
:1034600016494B6316490B60164909780C00C44095
:10347000224214D0114A546A8200134D5259944288
:1034800006D38200114C125999430E4B197007E074
:103490000A4A031D9B0099589950002200E000221F
:1034A000BFF35F8F044B002119608CF31088002A52
:1034B00000D0904770BDC046280100D000400540B4
:1034C0003C700540B61F0020701F0020141700201C
:1034D00010B50100024A0348FEF79AFD10BDC04630
:1034E0001C9B0010AD1F0020044B5B6A034A906ACE
:1034F0001900536A9942F9D17047C046004005400F
:10350000084B5B6A01E0074B5B6A8B42FBD301E02F
:10351000044B5B6A8B4203D1024B9B6A8342F7D315
:103520007047C0460040054070B504000D00EFF341
:10353000108672B61B4B1B68002BFBD0BFF35F8F4E
:10354000002D1CD02000FEF757FE174B83420BD0F6
:1035500019002000FEF76AFE01212000FEF73CFE64
:103560000123A340114A1360A400114BE550BFF39F
:103570005F8F0C4B00221A6086F3108870BDA2008A
:103580000B4B0021D1500122A2400A490B789343F2
:103590000B7005492000FEF78DFF00212000FEF78B
:1035A0001BFEE4E7280100D04134001038600540DC
:1035B00014170020B61F0020F0B5DE4600B584B019
:1035C0000400150001921E000293FFF78DFF039582
:1035D0008E4202D84ED185424CD9EFF3108B72B691
:1035E000274B1B68002BFBD0BFF35F8F254A177852
:1035F0000125A540EBB23B431370234B5D63221DB5
:1036000092000199D150A2002049029850501B6AA3
:103610002B4212D11C4B1B6C2B4208D00020BFF355
:103620005F8F174B00221A608BF3108823E0184B32
:10363000184AC521184800F099FCFFF755FF8E4243
:1036400014D802D1039B834210D80E4B1B78BB4287
:103650000ED00D4B1D625D631F2004400123A3406B
:103660000E4A1360074B1F701E38D8E70020D6E7BC
:103670000120D4E7012004B080BCBB46F0BDC046A9
:10368000280100D0B61F002000400540701F002018
:10369000409B0010C49B0010649B001080E200E07F
:1036A000EFF3108C72B60B4B1B68002BFBD0BFF3F3
:1036B0005F8F01238340084A136208490A789A43BE
:1036C0000A70BFF35F8F034B00221A608CF31088DF
:1036D0007047C046280100D000400540B61F0020BA
:1036E00010B500291ED0037B99421BD84B005B18F4
:1036F000033B0468A4466344002919D0002A1DD066
:10370000914221D0002A25D0047BA24222D804680D
:1037100050008018033820188170197800291FD1B3
:103720001A7010BD104B114A6821114800F01EFCA0
:10373000104B114A6F310E4800F018FC0F4B0E4A27
:1037400070210B4800F012FC0D4B0B4A7121084808
:1037500000F00CFC044B054A6821054800F006FC0B
:1037600041701A70DDE7C04614980010E89C001004
:103770003098001098980010D49C0010A498001065
:10378000B098001070B506000D001400002914D088
:10379000002A14D0806873689847002806D0220059
:1037A00029003000FFF79CFF280007E02A002100D5
:1037B0003000FFF795FF200000E0100070BD08000A
:1037C000FCE7000010B50023437301338373037BD0
:1037D000C3730123027B9A4214D9002B0CD0027BC5
:1037E000934209D85A00D218033A01688C466244C1
:1037F0000133DBB25370EDE70B4B0C4A68210C48E8
:1038000000F0B4FB002A09D0924207D801685300A7
:103810009A18033A8A180023537010BD024B034ACA
:103820006821034800F0A2FB14980010E89C0010E7
:103830003098001010B5017342608360FFF7C2FF3B
:1038400010BD000070B50400081E00D170BD002935
:1038500034D0237B994231D84B005B18033B22685C
:10386000944663445A78002AF0D02DD0237B9A42A4
:103870002AD853009B18033B21688C4663445D782B
:1038800000215970002825D0237B984222D843007C
:103890001B18033B21688C466344002159700100CA
:1038A0002000FFF76FFF060029002000FFF7CAFF86
:1038B000020031002000FFF765FFC7E7084B094A07
:1038C0006821094800F052FB054B064A682106486A
:1038D00000F04CFB024B034A6821034800F046FB12
:1038E00014980010E89C00103098001070B5050086
:1038F0000C00160000292FD034D0037B994231D818
:103900004B005B18033B0268944663445A78002AD4
:103910002ED19A78002A31D11978FFF793FF03004E
:10392000002E0AD0EA7B002A2ED1AA7B002A03D1DE
:10393000EA7B002A3BD1AC73EC73002B3DD1002C09
:103940004FD02B7B9C424CD82B6861000C19033C58
:103950001C190023637070BD254B264A3821264868
:1039600000F004FB254B264A6821264800F0FEFAA9
:10397000254B204A3A21204800F0F8FA234B1D4AF3
:103980003B211D4800F0F2FA002A0AD0297B8A4226
:1039900007D851008A18033A29688C46624454704B
:1039A000C3E7164B164A6821164800F0DFFA184B99
:1039B000104A4221104800F0D9FA002B0BD02A7B84
:1039C000934208D843001B18033B2A68944663447B
:1039D00000229A70B3E7094B094A6821094800F0B0
:1039E000C5FA064B064A6821064800F0BFFAC046F1
:1039F000E09B0010C09C0010E89B00101498001081
:103A0000E89C0010309800103C9C0010649C001052
:103A10007499001070B504000A00457B2900FFF777
:103A200065FF6073280070BD70B50400002967D081
:103A3000437B8B420ED0002911D0037B99420ED8D4
:103A40004B005B18033B0268D0188378002B0CD125
:103A5000002056E00121FFF7DDFF012051E0294B56
:103A6000294A6821294800F081FA002B20D0227BC6
:103A700093421DD85A00D318033B2268D2182568F8
:103A8000EB5C8B421AD0002B1BD0227B934218D8C0
:103A90005A00D318033B2268D21853788B4216D0B1
:103AA000002BF0D11A4B1B4A6B211B4800F05EFA29
:103AB000144B154A6821154800F058FA43781370E2
:103AC00007E0104B104A6821104800F04FFA437885
:103AD000537000238370437001222000FFF706FF1C
:103AE0000200617B814205D02000FFF74BFE60732E
:103AF000012006E0094B074A7121074800F036FA19
:103B0000002070BD14980010E89C00103098001040
:103B100068950010A89C0010E89B0010889C00107D
:103B2000F8B5DE4657464E464546E0B505000F005F
:103B300092460A9A934250D31A0E91461E020A9A4E
:103B400000233000494601F043FC80466C006419B4
:103B5000A400304B9C4664446368834200D260609A
:103B60002B1FDBB29B46012B3DD9C0239B01234376
:103B7000802212011A60AB00274A9958002907D009
:103B8000506901F0E7FB431C5800C0180338FDD210
:103B900053465A0123685A40E0231A4080235B01B0
:103BA00023431A605A46012A28D980239B012343C4
:103BB000802212011A6043466360424600233000AF
:103BC000494601F005FCAD00134B58510120F0BCF3
:103BD000BB46B246A946A046F8BD104B104A332159
:103BE000104800F0C3F9012FBFD1C0239B0123432C
:103BF00003221A60A368DB07FCD5C9E72168794076
:103C000003220A401A60A2680123BB401342FAD083
:103C1000CBE7C0460080004058180020F49C0010FC
:103C2000689D0010089D001030B583B00C2000F096
:103C300011F9FEF7CDF900280DD0002304E099001A
:103C40002D4A2E4888500133092BF8D92A4B2C4A8B
:103C50005A6203B030BD2B4B00229A6700F06CF91A
:103C6000294B01221A60274B5B6C012BFBD1274BA0
:103C700003221A60234B9B6B012BFBD10133009372
:103C80000433234A0121234800F054F8052300930C
:103C9000214A0121214800F04DF8214B00930022D8
:103CA00002210420FFF73CFF1E4D00952B0000224F
:103CB00001210520FFF734FF104C0094230000225F
:103CC00000210720FFF72CFF009423000022002191
:103CD0000820FFF725FF0A4B009323000022002154
:103CE0000920FFF71DFF00952B0000220021062070
:103CF000FFF716FFADE7C04658180020006CDC0245
:103D00001BB70000008000403CB0004030B00040D5
:103D1000002F685900800240008C864700C0024096
:103D2000001BB700405973078000014BC058704713
:103D300058180020F0B5C64600B504000E00170064
:103D40001D00374801F006FB8046364BFA18364B0B
:103D50009A4239D80100380001F0FCFA0200103A0A
:103D600098235B009A4235D86B1E062B38D8069BE9
:103D7000013B062B34D83F09474537D32D04069B1A
:103D80001A0315432368002B36DB284B9C4244D092
:103D900080225201264B1A60264B1A60264B9B68E4
:103DA00011009943FAD12660A060231DC022920120
:103DB0001A43212313602368002BFCDAE5600823F3
:103DC000136080BCB846F0BD1C4B1D4A11211D4834
:103DD00000F0CCF81C4B1A4A19211A4800F0C6F81A
:103DE0001A4B174A1C21174800F0C0F8184B144A08
:103DF0002321144800F0BAF822683F231340B3424D
:103E0000C3D1A3681B051B0D8342BED1E368EE221C
:103E1000D2021340AB42B8D1D3E780229201B9E776
:103E2000001BB70080E84BD380F8A93200C00240E5
:103E300000E0004000F0004000C00040789D00100D
:103E4000B89E0010D89D0010349E0010509E0010A7
:103E50009C9E001080239B000343014AD36270475D
:103E600000800540024B1A68024B5A607047C046FA
:103E7000081D00200080054010B50200164B802070
:103E8000C0051860154B1648186000290AD0154B5C
:103E9000E021C9041960002A09D1124B80221206C0
:103EA0001A6010BD0C4BE021C9041960F3E75301FF
:103EB0009B1A9800801800010B4B186080235B044C
:103EC000984202D3084B094A1A60FFF7CBFF054B13
:103ED0008022D2051A60E4E700B0054008200140C6
:103EE000FCFF010000A00540081D0020FFFFFF00AF
:103EF00010B5030010000C4A8024E4051460002B68
:103F00000DD001221343094A094CD461094C5C408D
:103F10001462516293620021FFF7AEFF10BD034BA4
:103F20000022DA61F7E7C04600B005400080054096
:103F3000D3C007B02D3FF84F064BAA2212011A60DA
:103F40002F22DA60044B054A1A60024B5B68002B93
:103F5000FBDA7047004002400060024000B0FA0007
:103F600000BEFDE710B5FFF7FBFF000010B582B003
:103F70000C001900002A0CD0084B002A0BD001922B
:103F8000009323000200064801F052FF0120FFF7D2
:103F9000E7FF044BF1E7034AF1E7C046C49E001077
:103FA000D49E0010648C001070B52B4B2B4A1A6005
:103FB0002B4B2C4A1A602C4B9A682A4B9343FAD10C
:103FC0002A4C01E008CC9847294B9C42FAD3FFF7D2
:103FD0002BFE234B274A1A60234B9B68DB43DB01F4
:103FE000FAD1254B40229A675A671A67DA66234C42
:103FF00009E0234B234A87212348FFF7B7FF20001E
:10400000FEF7D0FB0834214B9C4209D22368002BD9
:10401000F5D0012BEDD12000FEF7D1FB0834F2E7FB
:104020001B4CA1681B4DC022280001F09BFDA56020
:10403000EFF30583002B00D000BEFEF72BF8FEF750
:1040400087FBFEF73FFF144C01E008CC9847134B69
:104050009C42FAD370BDC04600E00040BFCDFBFEDD
:1040600000F00040FE7F3C0000C0004080110020B6
:1040700090110020FFFFFF0100F0014078110020A7
:10408000049F0010AC9F0010249F0010801100209E
:1040900000ED00E0000000209011002098110020A9
:1040A000D0B5041E18D0FFF71FFA06000F1E15DB4F
:1040B0000D4908684968361A8F410C4A00233000C0
:1040C000390001F06DF920606160084A002330007A
:1040D000390001F065F9A2600020D0BD044B054A0B
:1040E0003F210548FFF742FF9812002040420F0091
:1040F00094960010949F0010B09600100FB400B575
:1041000083B0084801F064FE049B002B07D005A98A
:104110000191180001F06CFE034801F059FE0120E6
:10412000FFF71EFF849F00100C8D00109A4200D2F2
:1041300088547047704710B5002802D00B68496852
:10414000984710BD0100002007E083001B185B00AA
:10415000501C08601078C01830380A681378303B5B
:10416000DBB2092BF1D97047F0B5DE4657464E4613
:104170004546E0B583B093461F000C9B9A460D9CC4
:104180000E9B99460F9B9B0703D0B8460F00060075
:1041900022E00192A34688464E46B9460700B44243
:1041A00007D2551C4B4641462020B84701342A000F
:1041B000F5E73D004F465C46019B9B46B1464646AF
:1041C000B84637002E0007E0013C551C5346185DE9
:1041D00043463900B0472A00002CF5D135003E0097
:1041E00047460F9B9B0707D4100003B0F0BCBB46AB
:1041F000B246A946A046F0BDB0464E46B9462F008D
:104200005D46531BB342EFD2541C4B46414620201F
:10421000B8472200F5E7F0B5CE46474680B585B0F1
:10422000944698460C9D0D9C0EAB1B789946109AAF
:10423000119B129EB7071CD4002B0CD0F7070AD590
:104240004F46002F02D10C37374204D0013B02E029
:1042500030272F550134944201D21F2CF8D9F7078B
:1042600007D59C4205D21F2C03D830272F55013487
:10427000F5E7F70615D5770505D4002C03D0944251
:1042800024D09C4222D00F9A102A2BD00F9A102AA9
:1042900030D00F9A022A35D01F2C02D830222A554E
:1042A00001341F2C05D84A46002A31D02D222A5528
:1042B0000134039602930194009543466246FFF74A
:1042C00053FF05B0C0BCB946B046F0BD621E012C1C
:1042D00006D00F9F102F01D01400D4E7023CD2E784
:1042E0001400D0E7B206D1D41F2CCFD878222A559B
:1042F0000134D1E7B206CCD51F2CCAD858222A5592
:104300000134C9E71F2CC7D860322A550134C3E7EE
:10431000720703D52B222A550134CAE73207C8D5C4
:1043200020222A550134C4E7F0B5DE4657464E46F2
:104330004546E0B593B081468A46089209931CAB86
:1043400010CB1B789B461E9D219B9846002C03D1C9
:10435000102342469A4390468023DB0046461E4087
:1043600042461A4212D0002C22D000260EE03033F2
:10437000D9B2771C0AAB99552900200000F0EAFF5A
:10438000AC4216D31F2F14D83E0004002900200091
:1043900000F0E0FFCBB2092BE9D94246920605D5E1
:1043A0004121C918C9B20A39C9B2E2E76121F8E767
:1043B000270043460693209B05931F9B0493039578
:1043C0005B46029301970AAB0093099B089A5146FA
:1043D0004846FFF720FF13B0F0BCBB46B246A946E3
:1043E000A046F0BDF0B5DE4657464E464546E0B520
:1043F00095B0089009910A920B931E9E1F9C20ABCA
:104400001B789B46229B9946239D269B9A46330008
:10441000234303D1103352469A4392468023DB0054
:1044200057461F4052461A4219D0330023432DD01D
:10443000002714E03033DAB27B1C98460CABDA5517
:104440004A462B003000210000F0C2FFA5421FD8D1
:1044500019D043461F2B1BD8474606000C004A467E
:104460002B003000210000F0B3FFD3B2092BE1D9BB
:104470005246920605D54122D218D2B20A3AD2B299
:10448000DAE76122F8E7B145E3D901E00023984675
:1044900053460693259B0593249B04934B46039315
:1044A0005B460293434601930CAB00930B9B0A9A25
:1044B00009990898FFF7AFFE15B0F0BCBB46B246AD
:1044C000A946A046F0BD0000F0B5DE4657464E4670
:1044D0004546E0B591B083468A460C9298461A9CB0
:1044E00008941B9D099522002B002000290001F053
:1044F000EAF9002800D0E5E001225242D74B200023
:10450000290001F0DBF9002800D0DBE00122524253
:10451000D34B2000290001F0BBF9002800D0D1E0E6
:1045200000220023089E3000099D290001F0B0F907
:10453000002800D0DDE008980999069007918023B3
:10454000DB001E9A1A400D921E9A1A4201D10623D0
:104550001C930698079904000D000A000600024308
:1045600000D1D1E0080D4005400DBE4CA44660448A
:104570000A03120BBC4B13431F0001F0B7F9BB4AEF
:10458000BB4B01F046F9BB4ABB4B01F023F90400D9
:104590000D000022B94B3000390001F016F9B84A7D
:1045A000B84B01F036F902000B002000290001F0A1
:1045B00011F901F0B3F9814601F098F904000D00FA
:1045C000B14AB24B01F025F90022B14B01F002F9DA
:1045D00001F0A4F90600AF4AAF4B2000290001F01A
:1045E00018F904000D00300001F080F9AB4AAC4B23
:1045F00001F00FF902000B002000290001F0E5F89E
:1046000004000D0002000B0001F003F90A900B9169
:10461000A44BF31800261F0522002B0020002900C0
:1046200001F0D8F80E900F9122002B00002080217D
:10463000C90501F0CAF804000D0000229A4B0A983F
:104640000B9901F0CCF80022984B01F0C3F802005E
:104650000B000A980B9901F0C2F80022944B01F06C
:10466000B9F802000B000A980B9901F0B8F80200A3
:104670000B002000290001F0ADF802000B000E989D
:104680000F9901F0ACF80022774B01F0A3F832004B
:104690003B0001F0BEF806000F0004000D00069A72
:1046A000079B01F00BF9002830D001235B429C46A8
:1046B000E14400227D4B3000390001F090F8040005
:1046C0000D0023E01E9B04931D9B03931C9B0293F0
:1046D000089A099B0092019343460C9A514658460A
:1046E00000F0FCF811B0F0BCBB46B246A946A046AB
:1046F000F0BD0023002406930794069680231B0632
:104700009C46654407951AE7002399464B46633358
:10471000C62B1ED804261E9B1B0526D52B00234323
:104720000FD0644A644B0698079901F0BFF800283F
:1047300079D00022614B0698079901F0A9F800286A
:1047400071D01C9B4B4506DD4A46981A431E1C93AC
:1047500003E00526DFE700231C938023DB001E9A7D
:104760001A431E920026002399461D9B9E4264D246
:104770009F1B02231E9A1A400A921E9A134202D0CD
:10478000002E00D000274B46002B07D022002B0024
:104790000698079901F023F806900791002200235C
:1047A0000898099901F074F8002848D1444B1E9AE2
:1047B0001340049303971C9B0293069B079C009352
:1047C000019443460C9A5146584600F087F8002E53
:1047D00000D187E71E9B9B063DD54525441C4346DB
:1047E000020051462800D8474B46DA179B18534021
:1047F00005220592013E0496002203920A3202929B
:104800004A46D00F01900093434622005146584635
:10481000FFF78AFD0A9B002B00D163E702005F4689
:104820000C9E1D9D54E01C9B002B9ED00D9B002BCD
:104830009BD01C9B013B1C9397E7002799E7069CA4
:10484000079D2200290080200006844661440B0059
:1048500006920793AAE76525C0E7C046FFFFEF7FF2
:10486000FFFFEFFF01FCFFFF0000F03FFB799F50CF
:104870001344D33FB3C8608B288AC63F0000F83F7B
:1048800061436F63A787D23F71A379094F930A40B1
:104890000000E03F1655B5BBB16B0240EF39FAFEA0
:1048A000422EE63FFF03000000002C4000002440A1
:1048B000000018402D431CEBE2361A3F80842E4145
:1048C000FFF7FFFF541C434651462020B847220003
:1048D000931BAB42F6D3100004E7C046F0B5DE46AA
:1048E00057464E464546E0B595B00690079193462B
:1048F0009946209F1E9A1F9B1000190000F0E3FFAD
:10490000002831D101225242BF4B1E981F9900F05E
:10491000BFFF002837D101225242BC4B1E981F997D
:1049200000F0CCFF00283DD10022B94B1E981F9902
:1049300000F0C4FF002850D10022B64B1E981F99EA
:1049400000F0A6FF002848D1002200231E981F99DE
:1049500000F09EFF002850D100239846229B5B0563
:1049600000D4B6E0002458E0229B0393219B0293DD
:1049700003230193A84B00934B465A460799069888
:10498000FFF7F2FB0EE1229B0393219B029304238A
:104990000193A24B00934B465A4607990698FFF79E
:1049A000E3FBFFE00423229A1A4022990B4210D025
:1049B0009B4B002A0FD00422229903912199029146
:1049C000019200934B465A4607990698FFF7CCFB95
:1049D000E8E0944BEDE70322EEE7229B0493219B52
:1049E000039302971E9B1F9C009301944B465A46CB
:1049F00007990698FFF768FDD4E01E9A1F9B0020D8
:104A0000002100F0E2FE1E901F9101239846A5E7C9
:104A10000CAB30221A55013F01341F2C01D8092F4D
:104A2000F6D81E981F9900F079FF050000F05EFF90
:104A300002000B001E981F9900F0C7FEFA007A4B87
:104A40009B181A685B680A920B9300F0E2FE0890CC
:104A5000099100F087FF060000F044FF02000B0000
:104A60000898099900F0B1FE0890099100226F4B57
:104A700000F024FF00282ED00136300000F032FF75
:104A800002000B000A980B9900F008FF002801D0E3
:104A900001350026002F2CD1280000F027FF02004E
:104AA0000B001E981F9900F090FE06000F000022D8
:104AB0005E4B00F0EDFE002846D100225B4B30003B
:104AC000390000F0FBFE00283ED1EB073CD5013554
:104AD0003AE0062746E70022544B0898099900F06F
:104AE000D7FE0028D6D1002E01D0F307D2D501364B
:104AF000D0E7AA461F2C11D8013F0A21300000F050
:104B000029FC651C30310CAB19550A21300000F02E
:104B100021FC092E0ED906002C00EBE755461F2C70
:104B20000CD87B1E002F09D00CAA302111551F0074
:104B30000134F4E72B0055461C00F0E71F2C03D886
:104B40000CAB2E221A5501341F2C10D80A21280034
:104B500000F0D8FB661C30310CAB19550A21280037
:104B600000F0D0FB051E01D03400EDE73400032334
:104B7000229A1340012B1CD01F2C06D84346002B31
:104B800032D00CAB2D221A550134229B0393219B6A
:104B9000029301940CAB00934B465A460799069832
:104BA000FFF7E2FA15B0F0BCBB46B246A946A046F4
:104BB000F0BD219B002B13D04346002B02D10C33B8
:104BC00013420FD0219B013B2193190003E00CAB52
:104BD00030221A5501348C42CED21F2CF7D9CBE7A4
:104BE0002199F8E72199F6E7229B5B0704D50CABE6
:104BF0002B221A550134C8E7229B1B07C5D50CABE5
:104C000020221A550134C0E7FFFFEFFFFFFFEF7FBF
:104C100065CDCD4165CDCDC1C89F0010CC9F0010A2
:104C2000C09F0010BC9F0010B8A100100000E03F22
:104C3000F0B5DE4657464E464546E0B593B082464F
:104C40008B4690461193002900D1EBE20027554690
:104C5000119B1878002800D1E7E2252809D07C1C98
:104C600043463A005946A847119B01331193270048
:104C7000EEE7013311930024119A11780B00203BC9
:104C8000D8B2102803D88300D048C3589F460B00E1
:104C9000303BDBB2092B2CD92A292FD000230A93D1
:104CA000119B1A782E2A39D000239A46119A13782C
:104CB000683BD9B2122976D88B00C549CB589F469C
:104CC00001231C4301321192D6E702231C43013217
:104CD0001192D1E704231C4301321192CCE708233F
:104CE0001C4301321192C7E710231C430132119279
:104CF000C2E711A8FFF726FA0A90D1E71C9B1A1DFC
:104D00001C921868002804DB0A90119B0133119350
:104D1000C6E702231C4343420A93F6E78022D200EF
:104D200014435A1C11925A781300303BDBB2092B02
:104D300004D92A2A07D000239A46B7E711A8FFF71B
:104D400001FA8246B2E71C9B1A1D1C9218680028C3
:104D500004DB8246119B01331193A7E70020F8E79B
:104D600080235B002343511C119152786C2A01D09F
:104D70001C0018E0C0239B001C430131119112E07C
:104D800080232343511C11915278682A01D01C00C2
:104D900009E0C0231C430131119104E080235B0032
:104DA0001C4301321192119B18780300253BDAB2A3
:104DB000532A00D92CE29300864AD3589F46802379
:104DC0009B001C4301321192EDE780235B001C43E2
:104DD00001321192E7E7782809D0582838D06F2897
:104DE00038D0622838D010239C430A2600E01026D1
:104DF000582833D0692803D0642801D00C2294436A
:104E0000630501D50122944369282AD0642828D05B
:104E1000A30500D59FE0E30500D5B8E0630600D404
:104E2000CAE01C9A111D1C911168FF220A400594CA
:104E30000A9B049353460393029600230193009226
:104E400043463A0059462800FFF76EFA070027E06C
:104E50001026CDE70826CBE70226C9E72022144317
:104E6000C8E7A30520D4E30550D4630666D51C9A91
:104E7000111D1C911168FF220A40D317D118594007
:104E800005940A9B0493534603930296D20F019212
:104E9000009143463A0059462800FFF745FA0700BB
:104EA000119B01331193D3E61C9BDA1D07218A4322
:104EB000110008311C91116853689C46DB170C9354
:104EC0000D930C9A0D9B100048400E906246534083
:104ED0000F930E980F990C9A0D9B801A99410E9082
:104EE0000F9108940A9B0793534606930496002358
:104EF00005936346DA0F02920090019143463A000F
:104F000059462800FFF76EFA0700C9E71C9A111DE1
:104F10001C911268D317D118594005940A9B049329
:104F2000534603930296D20F0192009143463A00F2
:104F300059462800FFF7F8F90700B1E7230605D521
:104F40001C9A111D1C910023D25E96E71C9A111D1C
:104F50001C91126891E71C9BDA1D07218A431100FE
:104F600008311C9108940A9B0793534606930496B4
:104F700000230593029313685468009301944346F9
:104F80003A0059462800FFF72DFA070088E71C9AD7
:104F9000111D1C9105940A9B04935346039302969A
:104FA000002301931368009343463A0059462800B2
:104FB000FFF7BAF9070073E723060DD51C9A111DF8
:104FC0001C9112681204120C31E7C046D49F0010E5
:104FD00018A0001064A000101C9A111D1C911268EA
:104FE00025E746281AD01C9B0733072293431A0053
:104FF00008321C9204940A9A0392524602925C6808
:105000001B680093019443463A0059462800FFF775
:1050100065FC0700119B0133119319E620231C4303
:10502000E1E7672801D0472802D180231B011C43F8
:10503000452801D0472801D120231C431C9B07335E
:10504000072293431A0008321C9204940A9A03928E
:10505000524602925C681B680093019443463A00F2
:1050600059462800FFF730FA0700119B01331193CE
:10507000EEE502231A002240924623421FD001246B
:105080001C9B1A1D1C927A1C9146187843463A00C4
:105090005946A8475346002B16D1119B0133119353
:1050A0004F46D5E5561C434659462020B8472300B5
:1050B00032005C1C9D42F5D83D001700E0E701235B
:1050C0003A002F000A9DF4E74A46A9460A9D06E0E9
:1050D000571C434659462020C84734003A00661CF6
:1050E000A542F5D84D469146D7E71C9B1A1D1C9248
:1050F0001B6899465346002B00D1013B4E4601E008
:10510000013613003278002A02D05A1E002BF7D144
:105110004B46F21A10928023DB0026001E401C42F0
:1051200003D0524501D95346109302231A0022405E
:105130000B92234205D03A0037004C46A94655460B
:1051400020E03A00109B5F46B3462E0006E0551C57
:10515000434639002020B04723002A005C1C0A99EE
:105160009942F4D835005E46BB46109437004C4651
:10517000A946554606E01D000134561C43465946D3
:10518000C84732002078002804D0002FF4D06B1ECE
:10519000002DF0D117004D460B9B002B03D1119B26
:1051A0000133119354E50A9F109B06E0561C4346B9
:1051B00059462020A847230032005C1C9F42F5D8A6
:1051C0001700ECE721231C431C9B1A1D1C921B6833
:1051D00000930594082304935346039310230293EA
:1051E0000023019343463A0059462800FFF79CF8F4
:1051F0000700119B013311932AE57C1C43463A00BA
:1052000059462520A847119B0133119327001FE51C
:105210007C1C43463A005946A847119B0133119321
:10522000270015E50A4B9A4610E5AA46474502D3E2
:1052300043465A1E00E03A00434659460020D047F4
:10524000380013B0F0BCBB46B246A946A046F0BD3C
:10525000354100100EB410B585B0010007AC08CC84
:1052600003940122009452420348FFF7E1FC05B089
:1052700010BC08BC03B018472D41001000B585B024
:10528000029003910121009313004A4202A90248AF
:10529000FFF7CEFC05B000BD3741001001480421E6
:1052A000014B1847E00C0020CD52001010B5010052
:1052B00018231B8814221088984710BD10B50100D0
:1052C00018231B8816221088984710BDF0B5C646D3
:1052D00000B507000E0000250123984600E00135C7
:1052E000B5420AD2AC003C192068FFF7DFFF20600E
:1052F0000028F4D100239846F1E7404680BCB84628
:10530000F0BD0000124A936F9B0815D29066D166DB
:10531000002905D0FFE7FFE7FFE7516F106F7047E7
:1053200004B580210906C2175140002800D0C843A7
:1053300003F01EFB002104BDF0B5146E556E576FCF
:10534000166FFFF7E3FF1466556657671667F0BDE3
:10535000000000D0114A936F9B0813D2106651666B
:10536000002905D0FFE7FFE7FFE7516F106F704797
:1053700004B5002801D00020C04303F0F9FA002151
:1053800004BDC046F0B5146E556E576F166FFFF72B
:10539000E5FF1466556657671667F0BD000000D03C
:1053A00094464A4A926F9208624601D228E0C0466B
:1053B000F0B5464E346E756E776F366F00F020F89C
:1053C0009446424A14665566576716676246F0BDB2
:1053D00094463E4A926F9208624601D254E0C0461B
:1053E000F0B53A4E346E756E776F366F00F04CF84C
:1053F0009446364A14665566576716676246F0BD8E
:10540000002B24DB11D000293EDA00B5C94340420D
:1054100000D1013100F038F8C943404200D10131D8
:10542000DB43524200D1013300BD002AEBD10028FA
:1054300001D1002905D00020C90FC90701D1C043FF
:10544000410800B503F08CFA0022002300BD00B52E
:1054500000290ADBDB43524200D1013300F014F88B
:10546000C943404200D1013100BDC943404200D18F
:105470000131DB43524200D1013300F005F8DB4338
:10548000524200D1013300BD002923D1002B18D195
:10549000002A0CD0BC460D4F38667A6600210023E6
:1054A000FFE7FFE7FFE77A6F386F6746704700282E
:1054B00001D00748010000B503F052FA0022002392
:1054C00000BD02000B00002000217047000000D04A
:1054D000FFFFFFFF002B00D0BFE0130C28D1002AF4
:1054E000E7D080B4114F39667A66FFE7FFE730B442
:1054F000040C7B6F396F1B0423433B667A66FFE71E
:10550000FFE7FFE7C04684B27B6F3D6F1B04234378
:105510003B667A66FFE7FFE7C04600232C042D0CAC
:105520007A6F386F00196941B0BC7047000000D035
:10553000F0B594460025140E01D112020835140F5F
:1055400001D112010435940F01D192000235D40F1C
:1055500001D152000135D40B0134254F7C66254C16
:105560003C660E0C93B2FFE7FFE7FFE73C6F664334
:10557000360C7703BE467343DF0B5B04C01AB94198
:10558000130C7343DB18C91ACE086643360CB644B5
:1055900093B273431F0F1B01C01AB941130C73431D
:1055A0001F0B1B05C01AB941860D8F023E4366438F
:1055B000360C092D24DB520A7243801A7703460AFF
:1055C0006643360C16235B1BDE40DF40BF19644682
:1055D0006643821B7046043506330100D940A8405B
:1055E000C01900D30131A24206D20023F0BD000051
:1055F000000000D0FFFFFFFF121B0130F3D3F1E7E3
:1056000009277F1BFE406446A2B27243801A00D273
:105610000139220C7243130C1204821A99410B00B7
:105620007046043513370100F940A840801900D3B3
:105630000131002B02D1A2420AD2F0BD013000D3C9
:105640000131121BFAD2013BF8D1A24200D2F0BDC7
:10565000013000D30131121BF7E7F0B51C0C00D06C
:1056600080E00CB400251C0A04D11B02160E334343
:10567000120208351C0B04D11B01160F3343120113
:1056800004359C0B04D19B00960F334392000235E6
:10569000DC0B02D192185B4101351C009718644164
:1056A0000134464F7C66464C3C660E0CFFE7FFE734
:1056B000FFE7C0463C6F6643360C7703BE4697B2A1
:1056C0007743C01B00D20139C01B00D201399FB201
:1056D0007743C91BC91B170C77437E04FF0B801B44
:1056E000B941CE086643360C0C2D33DBB644120BA1
:1056F0001F053A431B0B97B27743C01B00D20139F9
:105700009FB27743C91B170C77433E043F0C801BA5
:10571000B941860D8F023E43664329277F1BFE4019
:105720000C3D7746AF40BF1930BCA2B2ABB272435A
:105730007343801A9941220C7243130C1204801A8D
:10574000994102000B000137001BA941F9D2781ED4
:105750000021F0BD0C277F1BFE4077467F0BAF403A
:10576000FF19E0E700245D1C07D0144F7D66396601
:10577000FFE7FFE7FFE7FFE73C6F95B29EB26543A7
:105780006643401BB141150C1E0C6543664336044D
:105790002F0C3E432D04401BB141994204D202001C
:1057A0000B0020000021F0BD01D19042F7D3801AF8
:1057B000994101349942F2D3F6E70000000000D08D
:1057C000FFFFFFFF48404140484018B4134B5B685F
:1057D000019308BD18B4114B1B68019308BD944692
:1057E0000F4A926F920805D2624618B40B4BDB68E1
:1057F000019308BD0A4AF0B5146E556E576F166FC7
:105800006246FFF7F2FF064A146655665767166749
:10581000F0BD18B4014B9B68019308BD601D0020CA
:10582000000000D0FFB550404240504059404B402E
:10583000594000E0FFB5154F4C00640D03D0BC4249
:1058400004D10C0314D80020090D09055C00640D77
:1058500003D0BC4204D11C030AD800221B0D1B0537
:1058600001264B4009D44B4003D58B4200D18242E4
:10587000FFBD9942FCD19042FFBD0B43DB180343AF
:105880001343F5D0C9434918FFBD0000FF070000CE
:1058900000B5FFF7CFFF804100BDC04600B5FFF760
:1058A000C9FF01D9002000BD012000BD00B5FFF7F0
:1058B000B9FF01D9002000BD012000BD00B5FFF7F0
:1058C000B1FF804100BD012040054A00121804D8F4
:1058D0005A00121801D8002070470120704700209C
:1058E000704700000021002805D17047C1174840CB
:1058F000401AFAD0C90713B5064B1B6898470CBC71
:10590000441CA2401005120B0349091B0905194349
:10591000114310BD601E00201F04000010B54C0094
:10592000620D8023D218DB00D21A5B057E2A10DDBF
:105930009E3A13DACC170903490819435242D14061
:10594000640001341532202A05DAD0400843604350
:1059500010BD002010BD0846604310BDC80FC01820
:10596000013810BD18B4024B5B6A019308BD0000FA
:10597000601D002010B50148FEF7C0FB08A2001012
:1059800070B513231C78012C14D0012C14DC022CCC
:1059900002DC1F4A1F4B9A641F48FFF787FC1F4B0E
:1059A000186070BD99001E481A4A885001331F2B99
:1059B000F8D9EAE70023FAE71A48FFF77FFC050069
:1059C0001948FFF77BFC023803789B007F2B19DD19
:1059D000802229000F4800F0C5F8022CD7D1134BC4
:1059E0001A88B5231B029A4209D1114B1A88114B10
:1059F0009A4204D1104B1A88104B9A42C7D000200B
:105A0000FEF77CFB0E4B0F4A32210F48FEF7AEFA31
:105A10004D5A0010601D00204C330000601E002015
:105A200075590010534400005346000054380000DC
:105A3000D8380000494600009C3800005946000054
:105A400020A20010D8A2001074A2001007B5604672
:105A5000002800D100BE01880A0A0230DF2AFAD1EC
:105A6000C9B2820804D3028840880004104300E0D1
:105A70000068024A5050039007BD0000601D0020DE
:105A800051434343C9188C46110C83B24B4310B4A5
:105A9000040C614392B280B2504362431C041B0C5D
:105AA000001910BC59411304120CC0185141614433
:105AB0007047000010B50148FEF720FB648C001011
:105AC00070B513231E781848FFF7F8FB0500012E68
:105AD00011D0012E09DDAB1E1B789B007F2B1DDD35
